:020000040000FA
:060000000A128A11EE2F26
:100E5C008316031308158815080083120313080C56
:100E6C00F000700C01393A2F080083120313080CA0
:100E7C00F000F00C700C0139432F08007008203E74
:100E8C008400831300088312031386000800831662
:100E9C00031789018316031386018312031386013A
:100EAC0008003F3406345B344F3466346D347D3483
:100EBC0007347F346F347E088A007F0882000A1260
:100ECC008A1161270A128A118000840A04087D069F
:100EDC0003190034FF0A0319FE0A652FF4010A12E4
:100EEC008A114D270A128A110A128A112E270A1208
:100EFC008A11802F7408F200F3017208F000730855
:100F0C00F1000A128A1144270A128A110A128A1154
:100F1C003B270A128A11013A031D952F962FB02FE9
:100F2C000130F2007208F4070A307402031C9F2F80
:100F3C00A02FB02FF401B02FB02F7408F200F301E2
:100F4C007208F0007308F1000A128A1144270A1281
:100F5C008A11B02F0A128A113B270A128A11013A00
:100F6C000319B92FBA2FA32FBB2F0A128A113327BB
:100F7C000A128A11013A031DC42FC52FDE2F01302E
:100F8C00F402031DCA2FCB2FDE2F0930F20072089A
:100F9C00F400DE2FDE2F7408F200F3017208F0006B
:100FAC007308F1000A128A1144270A128A11DE2FE3
:100FBC000A128A1133270A128A11013A0319E72FF0
:100FCC00E82FD12F802F802F802F0A128A11002812
:100FDC0083132A30FD000730FE005730FF0020300D
:100FEC0084000A128A1165270A128A1183010A12D7
:040FFC008A11742FB3
:04400E00D4E0FFFFFC
:00000001FF
