:020000040000FA
:060000000A128A11EE2F26
:100EE2008316031388018312031388010800700814
:100EF200203E840083130008831203138800080035
:100F02003F3406345B344F3466346D347D340734F9
:100F12007F346F3477347C3439345E3479347134CD
:100F22007E088A007F0882000A128A1191270A121B
:100F32008A118000840A04087D0603190034FF0A1E
:100F42000319FE0A952FB32F0130F0020030031C63
:100F5200F103F102C730F200AE2FF20BAD2FB12F29
:100F6200B22FB32F70087104031DB82FB92FA52F0C
:100F7200BA2F08000A128A1171270A128A11C12F88
:100F82007408F1007308F0000A128A1178270A1215
:100F92008A11E830F0000330F1000A128A11A42706
:100FA2000A128A110130F3070318F40A0030F40719
:100FB2007408803AFF0080307F02031DE22F103058
:100FC2007302031CE52FE62FC12FF301F401C12F99
:100FD200C12FC12F0A128A11002883133030FD005D
:100FE2000730FE008130FF00203084000A128A118F
:0E0FF20095270A128A1183010A128A11BB2F59
:04400E00D4E0FFFFFC
:00000001FF
