:020000040000FA
:060000000A128A11EE2F26
:100E8E008316031308158815080083120313080C24
:100E9E00F000700C0139532F080083120313080C55
:100EAE00F000F00C700C01395C2F08007008203E29
:100EBE008400831300088312031386000800831630
:100ECE000317890183160313860183120313860108
:100EDE0008003F3406345B344F3466346D347D3451
:100EEE0007347F346F347E088A007F0882000A122E
:100EFE008A117A270A128A118000840A04087D0654
:100F0E0003190034FF0A0319FE0A7E2FF4010A1298
:100F1E008A1166270A128A110A128A1147270A12A3
:100F2E008A11992F7408F200F3017208F000730809
:100F3E00F1000A128A115D270A128A110A128A1109
:100F4E0054270A128A11013A031DAE2FAF2FC92F53
:100F5E000130F2007208F4070A307402031CB82F35
:100F6E00B92FC92FF401C92FC92F7408F200F3014C
:100F7E007208F0007308F1000A128A115D270A1236
:100F8E008A11C92F0A128A1154270A128A11013A9C
:100F9E000319D22FD32FBC2FD42F0A128A114C270C
:100FAE000A128A11013A031DDD2FDE2F992F01300F
:100FBE00F402031DE32FE42F992F0930F20072087B
:100FCE00F400992F992F992F0A128A110028831352
:100FDE002A30FD000730FE007030FF002030840004
:100FEE000A128A117E270A128A1183010A128A11A5
:020FFE008D2F35
:04400E00D4E0FFFFFC
:00000001FF
